{
  "contractName": "DappToken",
  "abi": [
    {
      "constant": true,
      "inputs": [],
      "name": "totalSupply",
      "outputs": [
        {
          "name": "",
          "type": "uint256"
        }
      ],
      "payable": false,
      "stateMutability": "view",
      "type": "function"
    },
    {
      "inputs": [],
      "payable": false,
      "stateMutability": "nonpayable",
      "type": "constructor"
    }
  ],
  "bytecode": "0x608060405234801561001057600080fd5b50620f4240600081905550609e806100296000396000f300608060405260043610603f576000357c0100000000000000000000000000000000000000000000000000000000900463ffffffff16806318160ddd146044575b600080fd5b348015604f57600080fd5b506056606c565b6040518082815260200191505060405180910390f35b600054815600a165627a7a72305820382a3d04d8ea6685d227e64c43928e2e083cee319188e02709e6f28f59def1fc0029",
  "source": "pragma solidity ^0.4.2;\n\n\n/**\n * The DappToken contract does this and that...\n */\ncontract DappToken {\n    // Contrstructor\n    // Set the total Token   \n    // Read total number of Token\n    uint256 public totalSupply;\n\n    constructor() DappToken() public {\n        totalSupply = 1000000;\n    }\n}   \n",
  "sourcePath": "/home/shiva/workspace/token_sale/contracts/DappToken.sol",
  "compiler": {
    "name": "solc",
    "version": "0.4.24+commit.e67f0147.Emscripten.clang"
  },
  "schemaVersion": "2.0.0",
  "updatedAt": "2018-06-16T08:23:38.914Z"
}